{
  "contractName": "demo",
  "abi": [
    {
      "anonymous": false,
      "inputs": [
        {
          "indexed": false,
          "internalType": "string",
          "name": "blockHash",
          "type": "string"
        },
        {
          "indexed": false,
          "internalType": "string",
          "name": "prevHash",
          "type": "string"
        },
        {
          "indexed": false,
          "internalType": "uint256",
          "name": "timeStamp",
          "type": "uint256"
        },
        {
          "indexed": false,
          "internalType": "string",
          "name": "ipfsHash",
          "type": "string"
        },
        {
          "indexed": false,
          "internalType": "string",
          "name": "account",
          "type": "string"
        }
      ],
      "name": "textCopied",
      "type": "event"
    },
    {
      "inputs": [],
      "name": "count",
      "outputs": [
        {
          "internalType": "uint16",
          "name": "",
          "type": "uint16"
        }
      ],
      "stateMutability": "view",
      "type": "function"
    },
    {
      "inputs": [
        {
          "internalType": "string",
          "name": "inputBlockHash",
          "type": "string"
        },
        {
          "internalType": "string",
          "name": "inputPrevHash",
          "type": "string"
        },
        {
          "internalType": "uint256",
          "name": "inputTimeStamp",
          "type": "uint256"
        },
        {
          "internalType": "string",
          "name": "inputIpfsHash",
          "type": "string"
        },
        {
          "internalType": "string",
          "name": "inputAccount",
          "type": "string"
        }
      ],
      "name": "textEdit",
      "outputs": [],
      "stateMutability": "nonpayable",
      "type": "function"
    },
    {
      "inputs": [],
      "name": "returnValues",
      "outputs": [
        {
          "internalType": "string",
          "name": "",
          "type": "string"
        },
        {
          "internalType": "string",
          "name": "",
          "type": "string"
        },
        {
          "internalType": "uint256",
          "name": "",
          "type": "uint256"
        },
        {
          "internalType": "string",
          "name": "",
          "type": "string"
        },
        {
          "internalType": "string",
          "name": "",
          "type": "string"
        }
      ],
      "stateMutability": "view",
      "type": "function"
    }
  ],
  "bytecode": "0x608060405260008060006101000a81548161ffff021916908361ffff16021790555034801561002d57600080fd5b50610a1a8061003d6000396000f3fe608060405234801561001057600080fd5b50600436106100415760003560e01c806306661abd14610046578063c7f6507314610064578063dddd904614610080575b600080fd5b61004e6100a2565b60405161005b9190610373565b60405180910390f35b61007e6004803603810190610079919061051e565b6100b4565b005b610088610102565b604051610099959493929190610697565b60405180910390f35b60008054906101000a900461ffff1681565b84600190816100c39190610912565b5083600290816100d39190610912565b508260038190555081600490816100ea9190610912565b5080600590816100fa9190610912565b505050505050565b6060806000606080600160026003546004600584805461012190610735565b80601f016020809104026020016040519081016040528092919081815260200182805461014d90610735565b801561019a5780601f1061016f5761010080835404028352916020019161019a565b820191906000526020600020905b81548152906001019060200180831161017d57829003601f168201915b505050505094508380546101ad90610735565b80601f01602080910402602001604051908101604052809291908181526020018280546101d990610735565b80156102265780601f106101fb57610100808354040283529160200191610226565b820191906000526020600020905b81548152906001019060200180831161020957829003601f168201915b5050505050935081805461023990610735565b80601f016020809104026020016040519081016040528092919081815260200182805461026590610735565b80156102b25780601f10610287576101008083540402835291602001916102b2565b820191906000526020600020905b81548152906001019060200180831161029557829003601f168201915b505050505091508080546102c590610735565b80601f01602080910402602001604051908101604052809291908181526020018280546102f190610735565b801561033e5780601f106103135761010080835404028352916020019161033e565b820191906000526020600020905b81548152906001019060200180831161032157829003601f168201915b50505050509050945094509450945094509091929394565b600061ffff82169050919050565b61036d81610356565b82525050565b60006020820190506103886000830184610364565b92915050565b6000604051905090565b600080fd5b600080fd5b600080fd5b600080fd5b6000601f19601f8301169050919050565b7f4e487b7100000000000000000000000000000000000000000000000000000000600052604160045260246000fd5b6103f5826103ac565b810181811067ffffffffffffffff82111715610414576104136103bd565b5b80604052505050565b600061042761038e565b905061043382826103ec565b919050565b600067ffffffffffffffff821115610453576104526103bd565b5b61045c826103ac565b9050602081019050919050565b82818337600083830152505050565b600061048b61048684610438565b61041d565b9050828152602081018484840111156104a7576104a66103a7565b5b6104b2848285610469565b509392505050565b600082601f8301126104cf576104ce6103a2565b5b81356104df848260208601610478565b91505092915050565b6000819050919050565b6104fb816104e8565b811461050657600080fd5b50565b600081359050610518816104f2565b92915050565b600080600080600060a0868803121561053a57610539610398565b5b600086013567ffffffffffffffff8111156105585761055761039d565b5b610564888289016104ba565b955050602086013567ffffffffffffffff8111156105855761058461039d565b5b610591888289016104ba565b94505060406105a288828901610509565b935050606086013567ffffffffffffffff8111156105c3576105c261039d565b5b6105cf888289016104ba565b925050608086013567ffffffffffffffff8111156105f0576105ef61039d565b5b6105fc888289016104ba565b9150509295509295909350565b600081519050919050565b600082825260208201905092915050565b60005b83811015610643578082015181840152602081019050610628565b60008484015250505050565b600061065a82610609565b6106648185610614565b9350610674818560208601610625565b61067d816103ac565b840191505092915050565b610691816104e8565b82525050565b600060a08201905081810360008301526106b1818861064f565b905081810360208301526106c5818761064f565b90506106d46040830186610688565b81810360608301526106e6818561064f565b905081810360808301526106fa818461064f565b90509695505050505050565b7f4e487b7100000000000000000000000000000000000000000000000000000000600052602260045260246000fd5b6000600282049050600182168061074d57607f821691505b6020821081036107605761075f610706565b5b50919050565b60008190508160005260206000209050919050565b60006020601f8301049050919050565b600082821b905092915050565b6000600883026107c87fffffffffffffffffffffffffffffffffffffffffffffffffffffffffffffffff8261078b565b6107d2868361078b565b95508019841693508086168417925050509392505050565b6000819050919050565b600061080f61080a610805846104e8565b6107ea565b6104e8565b9050919050565b6000819050919050565b610829836107f4565b61083d61083582610816565b848454610798565b825550505050565b600090565b610852610845565b61085d818484610820565b505050565b5b818110156108815761087660008261084a565b600181019050610863565b5050565b601f8211156108c65761089781610766565b6108a08461077b565b810160208510156108af578190505b6108c36108bb8561077b565b830182610862565b50505b505050565b600082821c905092915050565b60006108e9600019846008026108cb565b1980831691505092915050565b600061090283836108d8565b9150826002028217905092915050565b61091b82610609565b67ffffffffffffffff811115610934576109336103bd565b5b61093e8254610735565b610949828285610885565b600060209050601f83116001811461097c576000841561096a578287015190505b61097485826108f6565b8655506109dc565b601f19841661098a86610766565b60005b828110156109b25784890151825560018201915060208501945060208101905061098d565b868310156109cf57848901516109cb601f8916826108d8565b8355505b6001600288020188555050505b50505050505056fea26469706673582212203f0df3907fcb70f35a21f4652d6e57c6e595ad8e6dc58f47698329f6b2e5b61364736f6c63430008110033",
  "immutableReferences": {},
  "source": "// SPDX-License-Identifier: MIT\npragma solidity ^0.8.17;\n\ncontract demo {\n    //charCount must be taken care by shreeja(react)\n    uint16 public count = 0;\n\n    string blockHash;\n    string prevHash;\n    uint timeStamp;\n    string ipfsHash;\n    string account;\n\n    event textCopied(\n        string blockHash,\n        string prevHash,\n        uint timeStamp,\n        string ipfsHash,\n        string account\n    );\n\n\n    function textEdit(string memory inputBlockHash, string memory inputPrevHash, uint inputTimeStamp, string memory inputIpfsHash, string memory inputAccount) public{\n        blockHash = inputBlockHash;\n        prevHash = inputPrevHash;\n        timeStamp = inputTimeStamp;\n        ipfsHash = inputIpfsHash;\n        account = inputAccount;\n    }\n    function returnValues() public view returns (string memory , string memory, uint , string memory , string memory){   \n        return(\n            blockHash,\n            prevHash,\n            timeStamp,\n            ipfsHash,\n            account\n        );\n    }\n}",
  "sourcePath": "/Users/shubham/Documents/MLH-Hackathon/contracts/textUpload.sol",
  "compiler": {
    "name": "solc",
    "version": "0.8.17+commit.8df45f5f.Emscripten.clang"
  },
  "schemaVersion": "3.4.11",
  "updatedAt": "2022-12-10T23:17:24.034Z",
  "devdoc": {
    "kind": "dev",
    "methods": {},
    "version": 1
  },
  "userdoc": {
    "kind": "user",
    "methods": {},
    "version": 1
  }
}