{
  "contractName": "TextUpload",
  "abi": [
    {
      "inputs": [
        {
          "internalType": "string",
          "name": "",
          "type": "string"
        }
      ],
      "name": "ipfsHash",
      "outputs": [
        {
          "internalType": "string",
          "name": "",
          "type": "string"
        }
      ],
      "stateMutability": "view",
      "type": "function",
      "constant": true
    },
    {
      "inputs": [
        {
          "internalType": "string",
          "name": "",
          "type": "string"
        }
      ],
      "name": "prevHashs",
      "outputs": [
        {
          "internalType": "string",
          "name": "",
          "type": "string"
        }
      ],
      "stateMutability": "view",
      "type": "function",
      "constant": true
    },
    {
      "inputs": [
        {
          "internalType": "string",
          "name": "currentBlockHash",
          "type": "string"
        },
        {
          "internalType": "string",
          "name": "newBlockHash",
          "type": "string"
        },
        {
          "internalType": "string",
          "name": "inputIpfsHash",
          "type": "string"
        },
        {
          "internalType": "string",
          "name": "inputAccount",
          "type": "string"
        }
      ],
      "name": "textEdit",
      "outputs": [],
      "stateMutability": "nonpayable",
      "type": "function"
    },
    {
      "inputs": [
        {
          "internalType": "string",
          "name": "currBlockHash",
          "type": "string"
        }
      ],
      "name": "returnValues",
      "outputs": [
        {
          "internalType": "string",
          "name": "",
          "type": "string"
        },
        {
          "internalType": "string",
          "name": "",
          "type": "string"
        },
        {
          "internalType": "string",
          "name": "",
          "type": "string"
        },
        {
          "internalType": "string",
          "name": "",
          "type": "string"
        }
      ],
      "stateMutability": "view",
      "type": "function",
      "constant": true
    }
  ],
  "bytecode": "0x608060405234801561001057600080fd5b50610bbf806100206000396000f3fe608060405234801561001057600080fd5b506004361061004c5760003560e01c80636233d5011461005157806399ca3463146100815780639e327e52146100b4578063c5fb75b6146100e4575b600080fd5b61006b6004803603810190610066919061062c565b610100565b60405161007891906106f4565b60405180910390f35b61009b6004803603810190610096919061062c565b6101b6565b6040516100ab9493929190610716565b60405180910390f35b6100ce60048036038101906100c9919061062c565b6103ae565b6040516100db91906106f4565b60405180910390f35b6100fe60048036038101906100f99190610777565b610464565b005b60028180516020810182018051848252602083016020850120818352809550505050505060009150905080546101359061087d565b80601f01602080910402602001604051908101604052809291908181526020018280546101619061087d565b80156101ae5780601f10610183576101008083540402835291602001916101ae565b820191906000526020600020905b81548152906001019060200180831161019157829003601f168201915b505050505081565b606080606080846001866040516101cd91906108ea565b90815260200160405180910390206002876040516101eb91906108ea565b908152602001604051809103902060008280546102079061087d565b80601f01602080910402602001604051908101604052809291908181526020018280546102339061087d565b80156102805780601f1061025557610100808354040283529160200191610280565b820191906000526020600020905b81548152906001019060200180831161026357829003601f168201915b505050505092508180546102939061087d565b80601f01602080910402602001604051908101604052809291908181526020018280546102bf9061087d565b801561030c5780601f106102e15761010080835404028352916020019161030c565b820191906000526020600020905b8154815290600101906020018083116102ef57829003601f168201915b5050505050915080805461031f9061087d565b80601f016020809104026020016040519081016040528092919081815260200182805461034b9061087d565b80156103985780601f1061036d57610100808354040283529160200191610398565b820191906000526020600020905b81548152906001019060200180831161037b57829003601f168201915b5050505050905093509350935093509193509193565b60018180516020810182018051848252602083016020850120818352809550505050505060009150905080546103e39061087d565b80601f016020809104026020016040519081016040528092919081815260200182805461040f9061087d565b801561045c5780601f106104315761010080835404028352916020019161045c565b820191906000526020600020905b81548152906001019060200180831161043f57829003601f168201915b505050505081565b8360018460405161047591906108ea565b9081526020016040518091039020908161048f9190610ab7565b50816002846040516104a191906108ea565b908152602001604051809103902090816104bb9190610ab7565b5080600090816104cb9190610ab7565b5050505050565b6000604051905090565b600080fd5b600080fd5b600080fd5b600080fd5b6000601f19601f8301169050919050565b7f4e487b7100000000000000000000000000000000000000000000000000000000600052604160045260246000fd5b610539826104f0565b810181811067ffffffffffffffff8211171561055857610557610501565b5b80604052505050565b600061056b6104d2565b90506105778282610530565b919050565b600067ffffffffffffffff82111561059757610596610501565b5b6105a0826104f0565b9050602081019050919050565b82818337600083830152505050565b60006105cf6105ca8461057c565b610561565b9050828152602081018484840111156105eb576105ea6104eb565b5b6105f68482856105ad565b509392505050565b600082601f830112610613576106126104e6565b5b81356106238482602086016105bc565b91505092915050565b600060208284031215610642576106416104dc565b5b600082013567ffffffffffffffff8111156106605761065f6104e1565b5b61066c848285016105fe565b91505092915050565b600081519050919050565b600082825260208201905092915050565b60005b838110156106af578082015181840152602081019050610694565b60008484015250505050565b60006106c682610675565b6106d08185610680565b93506106e0818560208601610691565b6106e9816104f0565b840191505092915050565b6000602082019050818103600083015261070e81846106bb565b905092915050565b6000608082019050818103600083015261073081876106bb565b9050818103602083015261074481866106bb565b9050818103604083015261075881856106bb565b9050818103606083015261076c81846106bb565b905095945050505050565b60008060008060808587031215610791576107906104dc565b5b600085013567ffffffffffffffff8111156107af576107ae6104e1565b5b6107bb878288016105fe565b945050602085013567ffffffffffffffff8111156107dc576107db6104e1565b5b6107e8878288016105fe565b935050604085013567ffffffffffffffff811115610809576108086104e1565b5b610815878288016105fe565b925050606085013567ffffffffffffffff811115610836576108356104e1565b5b610842878288016105fe565b91505092959194509250565b7f4e487b7100000000000000000000000000000000000000000000000000000000600052602260045260246000fd5b6000600282049050600182168061089557607f821691505b6020821081036108a8576108a761084e565b5b50919050565b600081905092915050565b60006108c482610675565b6108ce81856108ae565b93506108de818560208601610691565b80840191505092915050565b60006108f682846108b9565b915081905092915050565b60008190508160005260206000209050919050565b60006020601f8301049050919050565b600082821b905092915050565b6000600883026109637fffffffffffffffffffffffffffffffffffffffffffffffffffffffffffffffff82610926565b61096d8683610926565b95508019841693508086168417925050509392505050565b6000819050919050565b6000819050919050565b60006109b46109af6109aa84610985565b61098f565b610985565b9050919050565b6000819050919050565b6109ce83610999565b6109e26109da826109bb565b848454610933565b825550505050565b600090565b6109f76109ea565b610a028184846109c5565b505050565b5b81811015610a2657610a1b6000826109ef565b600181019050610a08565b5050565b601f821115610a6b57610a3c81610901565b610a4584610916565b81016020851015610a54578190505b610a68610a6085610916565b830182610a07565b50505b505050565b600082821c905092915050565b6000610a8e60001984600802610a70565b1980831691505092915050565b6000610aa78383610a7d565b9150826002028217905092915050565b610ac082610675565b67ffffffffffffffff811115610ad957610ad8610501565b5b610ae3825461087d565b610aee828285610a2a565b600060209050601f831160018114610b215760008415610b0f578287015190505b610b198582610a9b565b865550610b81565b601f198416610b2f86610901565b60005b82811015610b5757848901518255600182019150602085019450602081019050610b32565b86831015610b745784890151610b70601f891682610a7d565b8355505b6001600288020188555050505b50505050505056fea264697066735822122053cba832b136af85c52775c5f22d9b66c1955c7e201f031949649cc94be1570864736f6c63430008110033",
  "immutableReferences": {},
  "source": "// SPDX-License-Identifier: MIT\npragma solidity ^0.8.17;\n\ncontract TextUpload {\n\n    string account;\n\n    mapping(string => string) public prevHashs;\n    mapping(string => string) public ipfsHash;\n\n    function textEdit(string memory currentBlockHash, string memory newBlockHash, string memory inputIpfsHash, string memory inputAccount) public{\n        prevHashs[newBlockHash] = currentBlockHash;\n        ipfsHash[newBlockHash] = inputIpfsHash;\n        account = inputAccount;\n    }\n\n    function returnValues(string memory currBlockHash) public view returns (string memory, string memory, string memory, string memory) {   \n        return(\n            currBlockHash,\n            prevHashs[currBlockHash],\n            ipfsHash[currBlockHash],\n            account\n        );\n    }\n}\n",
  "sourcePath": "/home/okami/Desktop/tests/blockchain/BlockyPocky/contracts/TextUpload.sol",
  "compiler": {
    "name": "solc",
    "version": "0.8.17+commit.8df45f5f.Emscripten.clang"
  },
  "schemaVersion": "3.4.11",
  "updatedAt": "2022-12-11T03:56:43.146Z",
  "networkType": "ethereum",
  "devdoc": {
    "kind": "dev",
    "methods": {},
    "version": 1
  },
  "userdoc": {
    "kind": "user",
    "methods": {},
    "version": 1
  }
}